{
  "address": "0xA6D8470985a1D9Fb9015466F9F7D75fb21628db1",
  "abi": [
    {
      "inputs": [
        {
          "internalType": "address",
          "name": "oracle",
          "type": "address"
        }
      ],
      "stateMutability": "nonpayable",
      "type": "constructor"
    },
    {
      "inputs": [],
      "name": "getLatestRandomValue",
      "outputs": [
        {
          "internalType": "string",
          "name": "",
          "type": "string"
        }
      ],
      "stateMutability": "view",
      "type": "function"
    },
    {
      "inputs": [],
      "name": "getLatestRound",
      "outputs": [
        {
          "internalType": "uint256",
          "name": "",
          "type": "uint256"
        }
      ],
      "stateMutability": "view",
      "type": "function"
    },
    {
      "inputs": [],
      "name": "randomOracle",
      "outputs": [
        {
          "internalType": "address",
          "name": "",
          "type": "address"
        }
      ],
      "stateMutability": "view",
      "type": "function"
    }
  ],
  "transactionHash": "0x70a6d03637084028e741f4f042099d3b75c2037d02df174b2d655ab47242a972",
  "args": [
    "0x8A81965D4c6D92DCbBd537A178c7C29Dc1C37bA2"
  ],
  "numDeployments": 1,
  "solcInputHash": "dc354aad4eb637be201edd35bc3ee821",
  "bytecode": "0x608060405234801561001057600080fd5b50604051610717380380610717833981810160405281019061003291906100db565b806000806101000a81548173ffffffffffffffffffffffffffffffffffffffff021916908373ffffffffffffffffffffffffffffffffffffffff16021790555050610108565b600080fd5b600073ffffffffffffffffffffffffffffffffffffffff82169050919050565b60006100a88261007d565b9050919050565b6100b88161009d565b81146100c357600080fd5b50565b6000815190506100d5816100af565b92915050565b6000602082840312156100f1576100f0610078565b5b60006100ff848285016100c6565b91505092915050565b610600806101176000396000f3fe608060405234801561001057600080fd5b50600436106100415760003560e01c8063708fe4df14610046578063a188dc4914610064578063a224c19814610082575b600080fd5b61004e6100a0565b60405161005b91906102bc565b60405180910390f35b61006c610146565b6040516100799190610370565b60405180910390f35b61008a61027f565b60405161009791906103d3565b60405180910390f35b60008060009054906101000a900473ffffffffffffffffffffffffffffffffffffffff1673ffffffffffffffffffffffffffffffffffffffff166382bc07e66040518163ffffffff1660e01b815260040160206040518083038186803b15801561010957600080fd5b505afa15801561011d573d6000803e3d6000fd5b505050506040513d601f19601f82011682018060405250810190610141919061042e565b905090565b606060008060009054906101000a900473ffffffffffffffffffffffffffffffffffffffff1690508073ffffffffffffffffffffffffffffffffffffffff16636f9aa7848273ffffffffffffffffffffffffffffffffffffffff166382bc07e66040518163ffffffff1660e01b815260040160206040518083038186803b1580156101d057600080fd5b505afa1580156101e4573d6000803e3d6000fd5b505050506040513d601f19601f82011682018060405250810190610208919061042e565b6040518263ffffffff1660e01b815260040161022491906102bc565b60006040518083038186803b15801561023c57600080fd5b505afa158015610250573d6000803e3d6000fd5b505050506040513d6000823e3d601f19601f820116820180604052508101906102799190610581565b91505090565b60008054906101000a900473ffffffffffffffffffffffffffffffffffffffff1681565b6000819050919050565b6102b6816102a3565b82525050565b60006020820190506102d160008301846102ad565b92915050565b600081519050919050565b600082825260208201905092915050565b60005b838110156103115780820151818401526020810190506102f6565b83811115610320576000848401525b50505050565b6000601f19601f8301169050919050565b6000610342826102d7565b61034c81856102e2565b935061035c8185602086016102f3565b61036581610326565b840191505092915050565b6000602082019050818103600083015261038a8184610337565b905092915050565b600073ffffffffffffffffffffffffffffffffffffffff82169050919050565b60006103bd82610392565b9050919050565b6103cd816103b2565b82525050565b60006020820190506103e860008301846103c4565b92915050565b6000604051905090565b600080fd5b600080fd5b61040b816102a3565b811461041657600080fd5b50565b60008151905061042881610402565b92915050565b600060208284031215610444576104436103f8565b5b600061045284828501610419565b91505092915050565b600080fd5b600080fd5b7f4e487b7100000000000000000000000000000000000000000000000000000000600052604160045260246000fd5b61049d82610326565b810181811067ffffffffffffffff821117156104bc576104bb610465565b5b80604052505050565b60006104cf6103ee565b90506104db8282610494565b919050565b600067ffffffffffffffff8211156104fb576104fa610465565b5b61050482610326565b9050602081019050919050565b600061052461051f846104e0565b6104c5565b9050828152602081018484840111156105405761053f610460565b5b61054b8482856102f3565b509392505050565b600082601f8301126105685761056761045b565b5b8151610578848260208601610511565b91505092915050565b600060208284031215610597576105966103f8565b5b600082015167ffffffffffffffff8111156105b5576105b46103fd565b5b6105c184828501610553565b9150509291505056fea26469706673582212208439e2cb1dff5ef334bd716979d280d843a4e92e4a765090ae8ab2dd0fe4771364736f6c63430008090033",
  "devdoc": {
    "kind": "dev",
    "methods": {},
    "version": 1
  },
  "userdoc": {
    "kind": "user",
    "methods": {},
    "version": 1
  },
  "storageLayout": {
    "storage": [
      {
        "astId": 155,
        "contract": "contracts/UseOracle.sol:UseOracle",
        "label": "randomOracle",
        "offset": 0,
        "slot": "0",
        "type": "t_address"
      }
    ],
    "types": {
      "t_address": {
        "encoding": "inplace",
        "label": "address",
        "numberOfBytes": "20"
      }
    }
  }
}